{
  "contractName": "DeXswap",
  "abi": [
    {
      "inputs": [],
      "name": "DXCToken",
      "outputs": [
        {
          "internalType": "contract IERC20",
          "name": "",
          "type": "address"
        }
      ],
      "stateMutability": "view",
      "type": "function",
      "constant": true
    },
    {
      "inputs": [],
      "name": "dxcOwner",
      "outputs": [
        {
          "internalType": "address payable",
          "name": "",
          "type": "address"
        }
      ],
      "stateMutability": "view",
      "type": "function",
      "constant": true
    },
    {
      "inputs": [
        {
          "internalType": "uint256",
          "name": "_dxcAmount",
          "type": "uint256"
        }
      ],
      "name": "swap",
      "outputs": [],
      "stateMutability": "payable",
      "type": "function",
      "payable": true
    }
  ],
  "bytecode": "0x6080604052600080546001600160a01b031990811673a42eec7ba2d195d923840adb68819edbe93459ec17909155600180549091167378d2dec555571eeb49714300cd3e6f7cade3928417905534801561005857600080fd5b50610206806100686000396000f3fe6080604052600436106100345760003560e01c80637388c0861461003957806394b918de1461006a578063b60ce43614610089575b600080fd5b34801561004557600080fd5b5061004e61009e565b604080516001600160a01b039092168252519081900360200190f35b6100876004803603602081101561008057600080fd5b50356100ad565b005b34801561009557600080fd5b5061004e6101c1565b6000546001600160a01b031681565b6001546040516001600160a01b03909116903480156108fc02916000818181858888f193505050501580156100e6573d6000803e3d6000fd5b5060008054600154604080516323b872dd60e01b81526001600160a01b03928316600482015233602482015260448101869052905191909216916323b872dd91606480830192602092919082900301818787803b15801561014657600080fd5b505af115801561015a573d6000803e3d6000fd5b505050506040513d602081101561017057600080fd5b50519050806101bd576040805162461bcd60e51b8152602060048201526014602482015273445843205472616e73666572206661696c65642160601b604482015290519081900360640190fd5b5050565b6001546001600160a01b03168156fea26469706673582212207b80edc56c07bcbf3108940786f347e0f1f9f3315b70fd8faedbc6c3d7bc6af064736f6c634300060a0033",
  "immutableReferences": {},
  "source": "// SPDX-License-Identifier: MIT\r\npragma solidity ^0.6.10;\r\n\r\nimport \"./IERC20.sol\";\r\n\r\n/// @author Laxman Rai\r\ncontract DeXswap{\r\n    /// @dev DXCToken is manually passed during the development\r\n    IERC20 public DXCToken = IERC20(0xa42eEC7BA2D195D923840aDB68819eDbE93459ec);\r\n    /// @dev dxcOwner address is from the contract creator\r\n    address payable public dxcOwner = 0x78D2DEc555571Eeb49714300cD3E6f7cAde39284;\r\n    \r\n    function swap(uint256 _dxcAmount) payable public {\r\n        /// @dev first transfer the amount to dxcOwner\r\n        dxcOwner.transfer(msg.value);\r\n        \r\n        bool dxcSent = DXCToken.transferFrom(dxcOwner, msg.sender, _dxcAmount);\r\n        require(dxcSent, \"DXC Transfer failed!\");\r\n    }\r\n}",
  "sourcePath": "C:/Users/sangy/Documents/DeXSwap/contracts/DeXswap.sol",
  "compiler": {
    "name": "solc",
    "version": "0.6.10+commit.00c0fcaf.Emscripten.clang"
  },
  "schemaVersion": "3.3.1",
  "updatedAt": "2020-11-26T16:31:38.237Z",
  "networkType": "ethereum",
  "devdoc": {
    "author": "Laxman Rai",
    "methods": {},
    "stateVariables": {
      "DXCToken": {
        "details": "DXCToken is manually passed during the development"
      },
      "dxcOwner": {
        "details": "dxcOwner address is from the contract creator"
      }
    }
  },
  "userdoc": {
    "methods": {}
  }
}